:100000000C94FA000C9422010C9422010C94B1146B
:100010000C94B1140C94B1140C9422010C94220190
:100020000C9422010C9422010C9422010C942201C4
:100030000C9422010C9422010C9422010C942201B4
:100040000C9448130C9422010C9416130C94F01287
:100050000C9422010C9422010C9422010C94220194
:100060000C9492130C942201084AD73B3BCE016EAC
:1000700084BCBFFDC12F3D6C74319ABD56833DDAFF
:100080003D00C77F11BED9E4BB4C3E916BAAAABE0E
:10009000000000803F0000000000240027002A002C
:1000A0000000000800020100000304070000000037
:1000B0000000000000000000000000000000000040
:1000C000000000000000000000000000010101012C
:1000D0000101010101010101020202020202020208
:1000E00003030303030304040404050505050506CF
:1000F0000606060707070808080909090A0A0A0B7D
:100100000B0B0C0C0D0D0D0E0E0F0F10101111120C
:1001100012131314141515161617181819191A1B7B
:100120001B1C1D1D1E1F1F202122222324252626C5
:100130002728292A2A2B2C2D2E2F303132333435E3
:10014000363738393A3B3C3D3E3F404142444546D4
:100150004748494B4C4D4E50515254555658595A98
:100160005C5D5E606163646667696A6C6D6F707226
:10017000737577787A7C7D7F8182848688898B8D80
:100180008F91929496989A9C9EA0A2A4A6A8AAAC9D
:10019000AEB0B2B4B6B8BABCBFC1C3C5C7CACCCE84
:1001A000D1D3D5D7DADCDFE1E3E6E8EBEDF0F2F529
:1001B000F7FAFCFF000000002300260029000000E1
:1001C0000000250028002B00040404040404040497
:1001D00002020202020203030303030301020408F2
:1001E00010204080010204081020010204081020A1
:1001F0002915BE2511241FBECFEFD8E0DEBFCDBF2D
:1002000013E0A0E0B1E0ECE5F5E502C005900D9249
:10021000A636B107D9F726E0A6E6B3E001C01D92E5
:10022000A133B207E1F710E0C9EFD0E004C0219795
:10023000FE010E947129C83FD107C9F70E948A16A2
:100240000C94A12A0C9400008F929F92AF92BF92BF
:10025000CF92DF92EF92FF92CF932091B60530912B
:10026000B70582179307E8F54B01AA24BB24C82DD4
:10027000C52ED62EE72EFF24BC2DA42F2091BC0521
:10028000222361F0829E40011124C92D2C9D600122
:100290001124BD2D249FF0011124AF2FE091C20540
:1002A000E090BD05F090BE053091BF05E31323C07B
:1002B0009C01220F331F820F931F8E0D9F1DE09113
:1002C000BF05E80FF92FF11DC083E091C005E80FCD
:1002D000F92FF11DB0832091C105820F911DFC0102
:1002E000A083CF91FF90EF90DF90CF90BF90AF9021
:1002F0009F908F900895880F991F880F991F8E0DDA
:100300009F1D472F552766277727222349F030E086
:10031000249F7001259FF00C349FF00C11244F2D69
:10032000E80FF92FF11D4083CACFCF92DF92EF92F1
:10033000FF920F931F939C01AAEFB5E00E944B26FA
:10034000DC01CB019058AF4FBF4FCD01BB2797FDCC
:10035000B095AB2F8E3F21E0920758F5282F8F3FA5
:10036000910508F445C06EEF681B862F30E02FEF33
:10037000682F70E090E080E0CB0177276627D12CD2
:10038000F12CE12C632B7D298E299F29022F10E06F
:1003900030E020E0322F212F102F0027602B712B0F
:1003A000822B932B1F910F91FF90EF90DF90CF90B6
:1003B00008958C3F23E0920768F48D3F22E0920776
:1003C00028F432E0380F2FEF80E0D2CF2CEF281B3B
:1003D0003FEFFACF8A3F25E0920769F03AEF381BEA
:1003E0008B3F24E0920740F48C5F3FEF20E0C0CFCA
:1003F00030E08FEFBDCF30E020E0FBCF9B01AC01C0
:1004000010922906109228061092270610922606AE
:10041000109225061092240660E079E08DE390E0CA
:100420000E94FF25C901039790932B0680932A060B
:1004300090911A06963108F054C0B90176956795E7
:10044000635171097093250660932406B9016550C4
:1004500071097093270660932606B901660F771F0E
:10046000260F371F36952795369527952C5031093D
:1004700030932906209328062091680084E0983064
:1004800048F031E09E3008F430E081E001C0880F90
:100490003A95EAF7822B809368002DE630E0983099
:1004A00050F02BE630E09E3030F02CE630E0963114
:1004B00010F030E020E03093220620932106292F0F
:1004C00030E0983008F03DC081E001C0880F9A9577
:1004D000EAF78093230680912A0690912B060197D4
:1004E000F1F78091280690912906892B49F1E09136
:1004F0009904F0919A0486E0EE30F80709F13097FC
:1005000039F0A389B4899C918589809589238C933E
:1005100080912C068E7F80932C0610929804109266
:1005200097048EE096E090939A0480939904E0916A
:100530002106F0912206808190912306892B8083E9
:1005400008959E3040F42850310981E001C0880FA1
:100550002A95EAF7BECF2E503109F7CFAF92BF925E
:10056000CF92DF92EF92FF920F931F93CF93DF937F
:100570006C017B018B01040F151FEB015E01AE18AE
:10058000BF08C017D10759F06991D601ED91FC91D0
:100590000190F081E02DC6010995892B79F7C501FD
:1005A000DF91CF911F910F91FF90EF90DF90CF904F
:1005B000BF90AF90089581E0089508950895FC01DB
:1005C000538D448D252F30E0842F90E0821B930BB8
:1005D000541710F0CF96089501970895FC01918D5E
:1005E000828D981761F0A28DAE0FBF2FB11D5D9661
:1005F0008C91928D9F5F9F73928F90E008958FEF03
:100600009FEF0895FC01918D828D981731F0828DB6
:10061000E80FF11D858D90E008958FEF9FEF08950D
:10062000FC01918D228D892F90E0805C9F4F821B71
:1006300091098F73992708958BE095E00E9410032C
:1006400021E0892B09F420E0822F089580E090E0DA
:10065000892B29F00E941C0381110C94000008953D
:10066000FC01A48DA80FB92FB11DA35ABF4F2C9127
:10067000848D90E001968F739927848FA689B7891E
:100680002C93A089B1898C91837080648C93938D15
:10069000848D981306C00288F389E02D80818F7DB8
:1006A00080830895EF92FF920F931F93CF93DF9370
:1006B000EC0181E0888F9B8D8C8D98131AC0E8899E
:1006C000F989808185FF15C09FB7F894EE89FF896D
:1006D0006083E889F98980818370806480839FBF0B
:1006E00081E090E0DF91CF911F910F91FF90EF900B
:1006F0000895F62E0B8D10E00F5F1F4F0F7311271B
:10070000E02E8C8D8E110CC00FB607FCFACFE88955
:10071000F989808185FFF5CFCE010E943003F1CFAA
:10072000EB8DEC0FFD2FF11DE35AFF4FF0829FB7C9
:10073000F8940B8FEA89FB8980818062CFCFCF93B9
:10074000DF93EC01888D8823B9F0AA89BB89E889F9
:10075000F9898C9185FD03C0808186FD0DC00FB69F
:1007600007FCF7CF8C9185FFF2CF808185FFEDCF1D
:10077000CE010E943003E9CFDF91CF91089590E040
:10078000FC01E056FF4F2491FC01E452FE4F3491EE
:10079000FC01E853FE4FE491EE23C9F0222339F027
:1007A000233001F1A8F4213019F1223029F1F0E0D1
:1007B000EE0FFF1FE254FE4FA591B4918FB7F8944E
:1007C000EC91611126C030953E233C938FBF089574
:1007D0002730A9F02830C9F0243049F780918000F3
:1007E0008F7D03C0809180008F7780938000DFCF62
:1007F00084B58F7784BDDBCF84B58F7DFBCF8091AF
:10080000B0008F778093B000D2CF8091B0008F7D01
:10081000F9CF3E2BDACFCF93DF9390E0FC01E45287
:10082000FE4F249188539E4FFC0184918823C9F088
:1008300090E0880F991FFC01EA56FF4FA591B491F3
:10084000FC01E254FE4FC591D49161110DC09FB7D8
:10085000F8948C91209582238C9388812823288377
:100860009FBFDF91CF910895623051F49FB7F89404
:100870003C91822F809583238C93E8812E2BEFCFA0
:100880008FB7F894EC912E2B2C938FBFEACF8E501C
:10089000806480937C0080917A00806480937A00E9
:1008A00080917A0086FDFCCF80917800909179004C
:1008B00008953FB7F8948091010490910204A091AB
:1008C0000304B091040426B5A89B05C02F3F19F07E
:1008D0000196A11DB11D3FBFBA2FA92F982F8827C0
:1008E000BC01CD01620F711D811D911D42E0660F9B
:1008F000771F881F991F4A95D1F70895CF92DF92ED
:10090000EF92FF920F931F93CF93DF93CDB7DEB794
:1009100029970FB6F894DEBF0FBECDBF8091BD05FD
:100920009091BE05892B09F480C0C090C305D0907A
:10093000C405E090C505F090C6050E9459046C15E9
:100940007D058E059F0550F40E9459046093C305F0
:100950007093C4058093C5059093C6050E94590401
:100960000091C3051091C4052091C5053091C605BD
:10097000601B710B820B930B6C32714081059105EA
:10098000A0F2F8948091B8059091B9059A83898373
:10099000E091BD05F091BE05DF0111968081898748
:1009A0009091B405E091C705F091C8058091C90503
:1009B000992309F449C09081982B9887908180955C
:1009C00089238F838F818C8388E08B8358856F8107
:1009D00049853B812C8189819A81508347FD252F50
:1009E0003A952083262F39F0441F00C00000608311
:1009F000000000C0F2CF38E04D9160830000019705
:100A000061F7F093C805E093C70549873B832C83C2
:100A10009A83898378940E9459046093C3057093E4
:100A2000C4058093C5059093C60529960FB6F89422
:100A3000DEBF0FBECDBFDF91CF911F910F91FF9011
:100A4000EF90DF90CF9008959081982B98879081B8
:100A5000809589238F838F818E8388E08D8358854D
:100A60006F8149853D812E8189819A81508347FD1F
:100A7000252F00C000C0208300C000C000C000C0FF
:100A800000C060830000262F3A9541F0441F00000B
:100A900000C000C000C000C000C0E8CF38E04D91E9
:100AA00000C0608300C0019709F7F093C805E09388
:100AB000C70549873D832E83ABCF8F929F92AF921C
:100AC000BF92CF92DF92EF92FF926B017C010E9466
:100AD00059044B015C01C114D104E104F104B9F0E3
:100AE0000E945904681979098A099B09683E734074
:100AF0008105910580F321E0C21AD108E108F108CF
:100B000088EE880E83E0981EA11CB11CE4CFFF90F4
:100B1000EF90DF90CF90BF90AF909F908F9008950F
:100B20002FB7F8946091FD037091FE038091FF034D
:100B3000909100042FBF08950895BF92CF92DF9245
:100B4000EF92FF920F931F93CF93DF934530D8F42A
:100B5000B42E062FEC0110E060E070E0CB01B1167E
:100B6000A9F0CC24D62EE72EF82EE881F981068054
:100B7000F781E02D602FCE0109959601282BC70142
:100B8000B9011F5FECCF60E070E0CB01DF91CF9146
:100B90001F910F91FF90EF90DF90CF90BF9008953D
:100BA00008958091090490910A04891B990B089576
:100BB0002091D903260F3327331F21323105ECF45E
:100BC00020910505FC0190E080E0243069F082E08E
:100BD0000895A091D9032191AC0147545C4FA40F13
:100BE000B52FB11D2C930196861798F38091D903E8
:100BF000680F6093D90380E0089581E00895109212
:100C0000050581E08093E4041092DF0461E082E155
:100C10000E94BF0361E083E10E94BF03E9EBF0E0C3
:100C200080818E7F808380818D7F808388E4809324
:100C3000B80085E48093BC000895CF93DF9391E0E2
:100C40009093B8038823B9F0C091B800D091BA004E
:100C50008091BC008A7B8093BC0060E082E10E94AE
:100C6000BF0360E083E10E94BF030E94FF05D093B1
:100C7000BA00C093B800DF91CF910895CF92DF9270
:100C8000EF92FF920F931F93CF93DF93D82FC62F2E
:100C9000613208F098C00E9459046B017C01809178
:100CA000050581116BC081E0809305058093E40404
:100CB0009FEF9093E3041092E2049C0F9093E10461
:100CC0008093E0048091E004DD0FD82BD093E00402
:100CD0008091DF04813009F078C01092DF040E9417
:100CE00059046B017C018091E0048093BB008091EA
:100CF000070590910805A0910905B0910A05892B77
:100D00008A2B8B2BA1F00E945904009107051091AA
:100D100008052091090530910A056C197D098E0995
:100D20009F09061717072807390708F448C080915C
:100D3000BC0083FDD8CF85EC8093BC000E94590491
:100D40006B017C0180910505813009F440C08091E0
:100D5000E2048C1710F4C091E204EFEBF4E0A5EE8E
:100D6000B4E080E08C1355C08C2FDF91CF911F91A0
:100D70000F91FF90EF90DF90CF900895809107053D
:100D800090910805A0910905B0910A05892B8A2B3D
:100D90008B2B09F484CF0E94590400910705109110
:100DA00008052091090530910A056C197D098E0905
:100DB0009F09061717072807390708F070CF809199
:100DC00006050E941D06C0E0CFCF85EEB5CF80910D
:100DD000070590910805A0910905B0910A05892B96
:100DE0008A2B8B2B09F4AECF0E9459040091070582
:100DF000109108052091090530910A056C197D09AB
:100E00008E099F09061717072807390708F09ACF98
:100E1000D6CF91919D938F5FA5CF8F929F92AF92E6
:100E2000BF92CF92DF92EF92FF920F931F93CF93D7
:100E3000DF93D091BE04D13208F0D7C0182FC091F3
:100E4000BD040E9459046B017C018091050581114C
:100E50006BC082E0809305051093E4048FEF8093CC
:100E6000E3041092E204D093E104ADE9B4E0EFEBC7
:100E7000F4E080E0D81391C01092E0048091E00487
:100E8000CC0FC82BC093E0048091DF04813009F0BF
:100E900088C01092DF040E9459046B017C0180918C
:100EA000E0048093BB008091070590910805A09114
:100EB0000905B0910A05892B8A2B8B2BA1F00E9482
:100EC00059040091070510910805209109053091FA
:100ED0000A056C197D098E099F090617170728074F
:100EE000390708F442C08091BC0083FDD8CF85EC5F
:100EF0008093BC000E9459046B017C018091050520
:100F0000823009F450C08091E3048F3F09F46FC030
:100F10008091E304803209F46CC08091E304803353
:100F200009F469C084E026C0809107059091080506
:100F3000A0910905B0910A05892B8A2B8B2B09F406
:100F400084CF0E9459048090070590900805A090D6
:100F50000905B0900A056C197D098E099F0986164E
:100F60009706A806B90608F070CF809106050E9482
:100F70001D0685E010929C041092BE0410929B0402
:100F8000DF91CF911F910F91FF90EF90DF90CF9065
:100F9000BF90AF909F908F9008959D9191938F5F98
:100FA00069CF85EEA5CF8091070590910805A091A6
:100FB0000905B0910A05892B8A2B8B2B09F49ECF4A
:100FC0000E94590400910705109108052091090518
:100FD00030910A056C197D098E099F0906171707BC
:100FE0002807390708F08ACFC0CF81E0C3CF80E05F
:100FF000C1CF82E0BFCF83E0BDCF1F93CF93DF93FC
:10100000FC01A6A1B7A1109721F1142FEC0180A536
:1010100091E090939B048093BD0410929C041092E5
:10102000BE04ED91FC9111970190F081E02DCD016E
:1010300009958EA19FA1DC01ED91FC910190F081B9
:10104000E02D612F099581E0DF91CF911F910C94E4
:101050000D07DF91CF911F9108950895E0910A0443
:1010600080910904E81730F4F0E0EB51FB4F8081E8
:1010700090E008958FEF9FEF089590910A0480917A
:1010800009042FEF3FEF981748F4E92FF0E0EB51F8
:10109000FB4F208130E09F5F90930A04C9010895BF
:1010A000CF92DF92EF92FF920F931F93CF93DF9334
:1010B0007C01CB018A0120919B04222389F0EB0162
:1010C0006B01C40ED51ECC15DD0569F06991D70101
:1010D000ED91FC910190F081E02DC7010995F3CFCE
:1010E000642F0E94D805C801DF91CF911F910F9105
:1010F000FF90EF90DF90CF900895CF93DF931F92F2
:10110000CDB7DEB7698320919B042223F9F02091AB
:10111000BE04203258F021E030E0FC01338322830A
:1011200090E080E00F90DF91CF91089580919C0432
:10113000E82FF0E0E356FB4F998190838F5F809317
:101140009C048093BE0481E090E0ECCF61E0CE018E
:1011500001960E94D805F7CFCF93C42F91E09093CA
:101160009B048093BD0410929C041092BE0488EAF4
:1011700095E00E947D086C2F88EA95E00E947D082A
:1011800081E00E940D0791E0811190E0892FCF91BD
:1011900008952091990430919A042817390771F421
:1011A0009091970480919804981741F0E0919704EA
:1011B000F0E0E858FC4F808190E008958FEF9FEFBA
:1011C0000895EF92FF920F931F93CF93DF93DC016B
:1011D0005C96ED90FC905D97E114F10479F481E068
:1011E00090E013969C938E93129790E080E0DF91AD
:1011F000CF911F910F91FF90EF9008955196ED912F
:10120000FC91529750968C915097982F90950FB7CC
:101210005E962C915E97122F127021FD6095F894C6
:101220002081112319F1282B2083E7012197F1F761
:1012300028E0462F50E0308160FF1AC0382B308301
:10124000E7012197F1F7BA0175956795215089F764
:10125000112381F08081892380830FBF5C968D915B
:101260009C910197F1F781E090E0C1CF2923DCCF79
:101270003923E5CF9081892BEFCF209199043091CC
:101280009A042817390771F48091980420919704E3
:1012900090E0805C9F4F821B910960E470E00E94A7
:1012A0005D29089590E080E008952091990430919F
:1012B0009A0428173907B9F49091970480919804FB
:1012C000981789F0E0919704F0E0E858FC4F80818E
:1012D0002091970430E02F5F3F4F2F7333272093E7
:1012E000970490E008958FEF9FEF089590E080E0DD
:1012F0000895CF93DF93D0E0C0E040E050E0BA0122
:10130000CE010E9424012196C631D105B1F7DF91AB
:10131000CF910895CF9360E084E00E94BF0361E025
:1013200085E00E94BF0361E086E00E94BF0361E0A8
:1013300087E00E94BF0380E10E944704C3E4469710
:101340009CF081E10E944704C4E446976CF084E17C
:101350000E944704C5E446973CF085E10E9447049B
:10136000C6E446970CF0CEE661E084E00E94BF033D
:1013700060E085E00E94BF0361E086E00E94BF0359
:1013800061E087E00E94BF0380E10E944704469726
:101390000CF472C081E10E94470446970CF46EC0C1
:1013A00084E10E94470446970CF46AC085E10E94DC
:1013B000470446970CF4C2E461E084E00E94BF0356
:1013C00061E085E00E94BF0360E086E00E94BF0309
:1013D00061E087E00E94BF0380E10E9447044697D6
:1013E0000CF450C081E10E94470446970CF44CC0B5
:1013F00084E10E94470446970CF448C085E10E94AE
:10140000470446970CF4C8E361E084E00E94BF0300
:1014100061E085E00E94BF0361E086E00E94BF03B7
:1014200060E087E00E94BF0380E10E944704469786
:101430007CF181E10E944704469764F184E10E94B7
:10144000470446974CF185E10E94470446970CF407
:10145000C4E361E084E00E94BF0361E085E00E9494
:10146000BF0361E086E00E94BF0361E087E00E9465
:10147000BF038C2FCF910895C9E39ECFC0E39CCFCB
:10148000C1E49ACFC5E3C0CFC6E3BECFC7E3BCCFAC
:10149000C1E3DFCFC2E3DDCFC3E3DBCFCF92DF9287
:1014A000EF92FF920F931F93CF93DF9300910F045E
:1014B0001091100480910B0490910C0408171907E7
:1014C0000CF077C010930C0400930B0480910B0474
:1014D00090910C04892B09F079C010930C040093AF
:1014E0000B04C0910D04D0910E04C0900B04D09059
:1014F0000C0446E1E42EF12C40E050E0BA01C701B3
:101500000E9424018FEFE81AF80A8EE2E816F1042F
:1015100099F7CE018C199D094F970CF482C00D2CC0
:10152000000CEE08FF08012E000C220B330BA90162
:1015300098012C193D094E095F09A7E1B0E00E940E
:101540001E269E01DD0F440B550B2C193D094E093B
:101550005F090E94FF2569017A0186E1C80ED11C4E
:10156000E11CF11C8BE2C816D104E4F5C601D7FCDE
:1015700001969595879544E150E060E070E00C9607
:101580000E942401C601D7FC0196959587959195F7
:101590008195910944E150E060E070E0C896DF91E8
:1015A000CF911F910F91FF90EF90DF90CF900C940F
:1015B000240180910D0490910E04801791070CF086
:1015C00085CF10930E0400930D0480CF80910D04FD
:1015D00090910E04892B09F084CF10930E04009390
:1015E0000D047FCF40E054E660E070E086E190E0DB
:1015F0000E94240144E650E060E070E08CE190E05D
:101600000E94240140E054E660E070E082E290E055
:101610000E94240140E050E064E670E088E290E03F
:10162000BECFC0900A06D0900B06E0900C06F0905A
:101630000D0680912D0490912E04A0912F04B0915D
:10164000300488519C4FAF4FBF4F8C159D05AE05A0
:10165000BF05D0F4C6E1D0E044E650E0BA01CE01C7
:101660000E9424012196CE32D105B1F764EF71E0DA
:1016700080E090E00E945D05C0922D04D0922E047F
:10168000E0922F04F0923004DF91CF911F910F91DF
:10169000FF90EF90DF90CF9008954F925F926F92FE
:1016A0007F928F929F92AF92BF92CF92DF92EF92F2
:1016B000FF920F931F93CF93DF93922FF801C09067
:1016C0000A06D0900B06E0900C06F0900D060091F3
:1016D0002D0410912E0420912F04309130040E0F10
:1016E0001F1F211D311D0C151D052E053F0508F07E
:1016F00092C0192F842E962E082FC0911F04D091CE
:101700002004C631D10509F097C0A6E1AA2EB12C5C
:1017100040E050E0BA01C5010E9424018FEFA81AF1
:10172000B80A8EE2A816B10499F728E2892D622F33
:101730000E943D2990E0B0E0A0E04424582E692E9C
:101740007A2E882D0E943D29482A802F0E943D290B
:10175000682A812F0E943D29B301A201782B8BE2D8
:1017600090E00E94240124E1892D622F0E943D29EE
:1017700090E0B0E0A0E04424582E692E7A2E882D07
:101780000E943D29482A802F0E943D29682A812FE6
:101790000E943D29B301A201782B8CE290E00E94C7
:1017A000240126E0892D622F0E943D2990E0B0E0BF
:1017B000A0E04424582E692E7A2E882D0E943D29BF
:1017C000482A802F0E943D29682A812F0E943D29A6
:1017D000B301A201782B8DE290E00E942401482DF4
:1017E00050E070E060E05929602B712B86E190E0B9
:1017F0000E9424012196CE32D1050CF085C1D093F0
:101800002004C0931F04C0922D04D0922E04E092B5
:101810002F04F0923004DF91CF911F910F91FF9030
:10182000EF90DF90CF90BF90AF909F908F907F9080
:101830006F905F904F900895C731D10509F074C043
:1018400056E1A52EB12C40E050E0BA01C5010E943E
:1018500024018FEFA81AB80A8EE2A816B10499F7EE
:1018600028E2892D622F0E943D2990E0B0E0A0E09F
:101870004424582E692E7A2E882D0E943D29482A0C
:10188000802F0E943D29682A812F0E943D29B301A3
:10189000A201782B8CE290E00E94240124E1892DA2
:1018A000622F0E943D2990E0B0E0A0E04424582E31
:1018B000692E7A2E882D0E943D29482A802F0E9469
:1018C0003D29682A812F0E943D29B301A201782B6E
:1018D0008DE290E00E94240126E0892D622F0E9473
:1018E0003D2990E0B0E0A0E04424582E692E7A2EE5
:1018F000882D0E943D29482A802F0E943D29682A70
:10190000812F0E943D29B301A201782B86E190E04E
:101910000E942401482D50E070E060E05929602BBE
:10192000712B87E190E064CFC831D10509F074C014
:10193000A6E1AA2EB12C40E050E0BA01C5010E94F8
:1019400024018FEFA81AB80A8EE2A816B10499F7FD
:1019500028E2892D622F0E943D2990E0B0E0A0E0AE
:101960004424582E692E7A2E882D0E943D29482A1B
:10197000802F0E943D29682A812F0E943D29B301B2
:10198000A201782B8EE290E00E94240124E1892DAF
:10199000622F0E943D2990E0B0E0A0E04424582E40
:1019A000692E7A2E882D0E943D29482A802F0E9478
:1019B0003D29682A812F0E943D29B301A201782B7D
:1019C00086E190E00E94240126E0892D622F0E948A
:1019D0003D2990E0B0E0A0E04424582E692E7A2EF4
:1019E000882D0E943D29482A802F0E943D29682A7F
:1019F000812F0E943D29B301A201782B87E190E05D
:101A00000E942401482D50E070E060E05929602BCD
:101A1000712B88E190E0ECCECE014997459708F014
:101A2000E9CE56E1A52EB12C40E050E0BA01C50147
:101A30000E9424018FEFA81AB80A8EE2A816B104FA
:101A400099F728E2892D622F0E943D2990E0B0E0AD
:101A5000A0E04424582E692E7A2E882D0E943D291C
:101A6000482A802F0E943D29682A812F0E943D2903
:101A7000B301A201782BCE0103970E94240124E137
:101A8000892D622F0E943D2990E0B0E0A0E044241F
:101A9000582E692E7A2E882D0E943D29482A802FA3
:101AA0000E943D29682A812F0E943D29B301A2018D
:101AB000782BCE0102970E94240126E0892D622F07
:101AC0000E943D2990E0B0E0A0E04424582E692E09
:101AD0007A2E882D0E943D29482A802F0E943D2978
:101AE000682A812F0E943D29B301A201782BCE01E3
:101AF00001970E942401482D50E070E060E05929D0
:101B0000602B712BCE0174CE86E190E0909320047F
:101B100080931F0478CECF92DF92EF92FF92CF9303
:101B2000DF93E0913E04F0913F04EF2B91F4C42E3B
:101B3000D12CF12CE12CF22AD62AE82AC6E1D0E0F9
:101B4000B701A601CE010E9424012196CE32D10513
:101B5000B9F7DF91CF91FF90EF90DF90CF9008958C
:101B6000CF93DF9380913E0490913F04892B61F4E1
:101B7000C6E1D0E040E050E0BA01CE010E9424016D
:101B80002196CE32D105B1F7DF91CF910895CF9351
:101B9000DF93C0913E04D0913F04209751F440E080
:101BA00050E0BA01CE010E9424012196CE32D10527
:101BB000B1F7DF91CF910895CF92DF92EF92FF922C
:101BC0000F931F93CF93DF93FC01A6A1B7A11097AA
:101BD000F1F14530E0F5142FEC0180A591E09093F0
:101BE0009B048093BD0410929C041092BE04ED915E
:101BF000FC9111970190F081E02DCD01099580E0D5
:101C00000E940D07612F88A50E943E0610920A04CB
:101C10008093090400E060E070E0CB011017D1F080
:101C2000CC24D62EE72EF82E8EA19FA1DC01ED91BB
:101C3000FC910284F385E02D0995BC01990F880B76
:101C4000990B6C297D298E299F290F5FE7CF60E0D2
:101C500070E0CB01DF91CF911F910F91FF90EF903A
:101C6000DF90CF90089542E0682F81EE95E00E94CA
:101C7000DC0D882799270895CF93DF93EC018EA17F
:101C80009FA1009741F128A531E030939B04209358
:101C9000BD0410929C041092BE04DC01ED91FC91F5
:101CA0000190F081E02D099580E00E940D0761E030
:101CB00088A50E943E0610920A04809309048EA112
:101CC0009FA1DC01ED91FC910284F385E02D099543
:101CD000DF91CF91089580E0FBCF2F923F924F92FA
:101CE0005F926F927F928F929F92AF92BF92CF92AC
:101CF000DF92EF92FF920F931F93CF93DF9300D069
:101D000000D01F92CDB7DEB7E82E6B834D8319014B
:101D10000E9490054B015C01FD80D12C1C822F2D6F
:101D200030E03A8329832801712C612C81E0809373
:101D30009B04E092BD0410929C041092BE046B813F
:101D400088EA95E00E947D0881E00E940D0791E0FD
:101D500090939B0410929C041092BE046F2D20E27D
:101D60002F1508F460E28E2D0E943E06C82E1092B8
:101D70000A048093090480910A04C816E1F0011551
:101D8000110571F488EA95E00E943D08F1013C815B
:101D9000E30FF11D37FDFA9580833F5F3C83EBCF66
:101DA0000E949005681979098A099B0964157505CF
:101DB0008605970538F38D81D80EF81AD81608F4E1
:101DC000B5CF01151105C1F00E9490056819790978
:101DD0008A099B0930E020E06017710782079307AA
:101DE00058F02C81822F220F990B29813A8182177A
:101DF000930714F43FEF3C838C810F900F900F906A
:101E00000F900F90DF91CF911F910F91FF90EF9066
:101E1000DF90CF90BF90AF909F908F907F906F900A
:101E20005F904F903F902F900895CF92DF92EF9266
:101E3000FF920F931F93CF93DF931F92CDB7DEB71F
:101E4000F82EE62EC42ED22E08EE13E09E012F5F50
:101E50003F4F41E00E946D0E81E090E001C0880F8D
:101E6000CA94EAF74981DD2081F0482B49836E2D21
:101E70008F2D0E94AC080F90DF91CF911F910F9191
:101E8000FF90EF90DF90CF90089580954823EECF9C
:101E9000BF92CF92DF92EF92FF920F931F93CF9357
:101EA000DF931F92CDB7DEB7F82EE62EC42EB22EEA
:101EB000D02E08EE13E09E012F5F3F4F41E00E94BD
:101EC0006D0E882371F18C2D8B19990BAC014F5F2E
:101ED0005F4F81E090E002C0880F991FBA94E2F74B
:101EE0000197042E01C0880F0A94EAF70D2D01C056
:101EF000000F4A95EAF7482F40959981492380239E
:101F0000482B49836E2D8F2D0E94AC080F90DF91D6
:101F1000CF911F910F91FF90EF90DF90CF90BF90E6
:101F2000089580E0F3CF0C94132A0C94132AFB013C
:101F300001900020E9F73197AF01461B570BDC01F8
:101F4000ED91FC910280F381E02D09948F929F9294
:101F5000AF92BF920F931F93CF93DF93CDB7DEB7AE
:101F6000A1970FB6F894DEBF0FBECDBF19A24230C5
:101F700008F44AE08E010F5D1F4F842E912CB12C86
:101F8000A12CA50194010E942926E62FB901CA01BE
:101F9000EA3004F5E05DD801EE938D01232B242B6C
:101FA000252B79F790E080E0109729F0BD018EE0B5
:101FB00096E00E94970FA1960FB6F894DEBF0FBE71
:101FC000CDBFDF91CF911F910F91BF90AF909F90A8
:101FD0008F900895E95CDFCF682F70E090E080E09B
:101FE0004AE00C94A60FCF92DF92EF92FF92CF932C
:101FF000DF936B017C016DE28EE096E00E94E108C8
:10200000EC0166277727CB016C197D098E099F09A2
:102010004AE00E94A60F8C0F9D1FDF91CF91FF9089
:10202000EF90DF90CF900895BC018EE096E00C9485
:10203000970FCF93DF93682F8EE096E00E94E10820
:10204000EC016DE471E08EE096E00E94970F8C0F3A
:102050009D1FDF91CF9108950F931F93CF93DF932F
:10206000EC010E94970F8C016DE471E0CE010E949B
:10207000970F800F911FDF91CF911F910F910895BE
:10208000809137049091380488519C4F9093380484
:1020900080933704809135049091360488519C4F89
:1020A00090933604809335048091330490913404E6
:1020B00088519C4F90933404809333048091310471
:1020C0009091320488519C4F909332048093310454
:1020D00080E591E00E9414106091370470913804FB
:1020E00090E080E04AE00E94A60F85E591E00E9422
:1020F0001410609135047091360490E080E04AE05D
:102100000E94A60F89E591E00E94141060913304AB
:102110007091340490E080E04AE00E94A60F8DE5C3
:1021200091E00E941410609131047091320490E0AB
:1021300080E04AE00E94A60F61E671E08EE096E042
:102140000E942C108091370490913804885E93404F
:10215000909338048093370480913504909136042D
:10216000885E9340909336048093350480913304C5
:1021700090913404885E93409093340480933304A8
:102180008091310490913204885E934090933204A0
:10219000809331040895CF93DF938EE00E9447042B
:1021A000EC0183E691E00E94141080913B040E94B0
:1021B000EC0F89E691E00E94141080913C040E948B
:1021C000EC0F8EE691E00E941410809139040E9479
:1021D000EC0F83E791E00E94141080913A040E9472
:1021E000EC0F88E791E00E94141080913D040E945A
:1021F000EC0F8DE791E00E9414109E01DD0F440B5F
:10220000550B205D324041095109A9E5B0E00E941B
:102210001E2622E830E040E050E00E94FF258AE0E0
:10222000820F0E94EC0F61E671E08EE096E0DF9194
:10223000CF910C942C100E949C2A85ED8093BC00B9
:102240008091070590910805A0910905B0910A05B4
:102250000796A11DB11D23E0B695A7959795879583
:102260002A95D1F72091BC0024FD03C010920505EA
:1022700008954091070550910805609109057091F6
:102280000A05452B462B472B69F30097A105B1059D
:1022900041F025E32A95F1F700000197A109B10962
:1022A000E1CF809106050C941D060C94F12562E89F
:1022B00071E08BE095E00E942C106091370484E07F
:1022C00090E00E9455116091350485E090E00E94F5
:1022D00055116091330486E090E00E9455116091A1
:1022E000310487E090E00E9455116091390482E04A
:1022F00090E00E94551160913A0483E090E00E94C2
:10230000551160913C0481E090E00E94551160916C
:102310003B0490E080E00C9455110C94E92562E9AF
:1023200071E08BE095E00E942C1084E090E00E9428
:102330008D1190E0909338048093370485E090E00D
:102340000E948D1190E0909336048093350486E0CE
:1023500090E00E948D1190E09093340480933304B8
:1023600087E090E00E948D1190E09093320480937A
:10237000310482E090E00E948D118093390483E063
:1023800090E00E948D1180933A0481E090E00E94D9
:102390008D1180933C0490E080E00E948D11809329
:1023A0003B0408958F929F92AF92BF92CF92DF929B
:1023B000EF92FF920F931F930E94900560930A067D
:1023C00070930B0680930C0690930D0680912C045D
:1023D000882309F454C008EE13E023ED35E04EE005
:1023E0006BE38091D2050E946D0E2091D305309150
:1023F000D4053227232732273093710320937003AB
:102400008091D5059091D605982789279827909394
:102410006F0380936E034091D7055091D8055427E0
:102420004527542750936D0340936C034091DB057F
:102430005091DC055427452754275093220440939C
:1024400021044091DD055091DE055427452754278E
:1024500050936B0340936A034091DF055091E00570
:102460005427452754275093240440932304309342
:1024700069032093680390936703809366038091B8
:102480002B04882309F488C008EE13E02BEC35E018
:1024900046E063E08091CA050E946D0E8091D105EF
:1024A000813031F441E062E08091CA050E94AC08BD
:1024B0008091CB059091CC059827892798279093F8
:1024C000770380937603E090CF05F090D005FE244B
:1024D000EF24FE24F0927503E09274032091CD0561
:1024E0003091CE0532272327322730937303209370
:1024F0007203BC01990F880B990B0E94E8274B01CE
:102500005C01B701FF0C880B990B0E94E827A5011D
:1025100094010E94DA262CEE3FE24BE35DE30E9439
:102520005A266B017C0120E030E0A9010E94392786
:1025300087FF0AC02BED3FE049EC50E4C701B6012C
:102540000E945B266B017C012BED3FE049EC50E4DF
:10255000C701B6010E94BF28181654F42BED3FE0C6
:1025600049EC50E4C701B6010E945A266B017C0178
:1025700020E030E044E353E4C701B6010E94CC28D8
:102580002BED3FE049E450E40E943E270E94B02733
:102590007093100460930F04809144048823A9F081
:1025A0000E9490054AE00E94A60F6DE471E08EE063
:1025B00096E01F910F91FF90EF90DF90CF90BF902A
:1025C000AF909F908F900C94970F1F910F91FF9059
:1025D000EF90DF90CF90BF90AF909F908F90089535
:1025E0001F920F920FB60F9211242F933F934F9388
:1025F0005F936F937F938F939F93AF93BF93EF936B
:10260000FF938BE095E00E943003FF91EF91BF9123
:10261000AF919F918F917F916F915F914F913F917A
:102620002F910F900FBE0F901F9018951F920F9231
:102630000FB60F9211242F938F939F93EF93FF93D5
:10264000E0911B05F0911C058081E0912105F0913E
:10265000220582FD1BC09081809124058F5F8F73BE
:1026600020912505821741F0E0912405F0E0E55F17
:10267000FA4F958F80932405FF91EF919F918F9151
:102680002F910F900FBE0F901F9018958081F4CF5F
:102690001F920F920FB60F9211242F933F938F9397
:1026A0009F93AF93BF938091FD039091FE03A09100
:1026B000FF03B09100043091FC0323E0230F2D377A
:1026C00058F50196A11DB11D2093FC038093FD03D5
:1026D0009093FE03A093FF03B09300048091010444
:1026E00090910204A0910304B09104040196A11DED
:1026F000B11D8093010490930204A0930304B0934E
:102700000404BF91AF919F918F913F912F910F90B2
:102710000FBE0F901F90189526E8230F0296A11D5B
:10272000B11DD2CF1F920F920FB60F9211242F938B
:102730003F934F935F936F937F938F939F93AF9349
:10274000BF93EF93FF938091B900887F803609F49F
:102750004AC0F0F5883209F4A7C018F5803109F4B1
:102760009BC0B8F4882309F4F9C0883009F494C0F8
:10277000FF91EF91BF91AF919F918F917F916F9159
:102780005F914F913F912F910F900FBE0F901F902F
:102790001895883109F488C0803251F78093E3049A
:1027A00014C0803409F49DC040F48033B9F38833F9
:1027B000F9F68093E30485ECB0C0803509F485C058
:1027C000883509F496C0883499F60E941D11D0CF3F
:1027D000883909F48CC038F5883729F050F48836E8
:1027E00011F0803729F683E0809305051092FB03F2
:1027F00057C0883809F47BC0803919F0803809F057
:10280000B7CF8091FB03803208F071C0E091FB03E9
:1028100081E08E0F8093FB038091BB00F0E0E552D6
:10282000FC4F80833DC0803B39F0E0F4803A09F4EE
:1028300079C0883A09F09CCF84E080930505109216
:10284000DA031092D903E0910704F0910804099586
:102850008091D90381110FC081E08093D903109238
:10286000B90309C0803C09F4A6CF883C09F4A3CF82
:10287000883B09F07DCFE091DA0381E08E0F8093F1
:10288000DA03F0E0E754FC4F80818093BB00909125
:10289000DA038091D90329C08091E0048093BB00C2
:1028A00085EC8093BC0064CF9091E2048091E104B8
:1028B000981758F5E091E20481E08E0F8093E204CE
:1028C000F0E0E154FB4F8081E9CFE091E20481E048
:1028D0008E0F8093E2048091BB00F0E0E154FB4F47
:1028E00080839091E2048091E1049817C8F285E812
:1028F000D8CFE091E20481E08E0F8093E2048091D2
:10290000BB00F0E0E154FB4F80838091E40481112F
:102910005CCF81E08093DF0484EA8093BC00109256
:10292000050526CF85EC8093BC00109205058091AB
:10293000FB03803230F4E091FB03F0E0E552FC4F02
:1029400010826091FB0370E0E0910504F0910604B1
:102950008BED93E009951092FB030ACF1092E304EC
:1029600034CF1F920F920FB60F9211242F933F93E3
:102970004F935F936F937F938F939F93AF93BF9387
:10298000EF93FF93E0919904F0919A04309749F006
:10299000A685B7858585968D91FF14C09C91892366
:1029A000A1F4FF91EF91BF91AF919F918F917F9192
:1029B0006F915F914F913F912F910F900FBE0F90AC
:1029C0001F9018959C91892361F7A389B4899C91E4
:1029D0008589809589238C93868997890197F1F75A
:1029E000608D718DA685B785558538E020E0CB01D7
:1029F0000197F1F7822F90E095958795282F4C91BC
:102A0000452309F02068315091F7868D81FD20958E
:102A10008091980490E001968F73992730919704E4
:102A2000381799F0A0919804B0E0A858BC4F2C93A7
:102A300080939804828D938D0197F1F7A389B489CF
:102A40008C919589892B8C93ACCF868D8160868FF4
:102A5000F1CFCF9310920E0510920D0588EE93E002
:102A6000A0E0B0E080930F0590931005A0931105AE
:102A7000B09312052BE031E030930C0520930B0549
:102A800025EC30E0309318052093170524EC30E056
:102A900030931A052093190520EC30E030931C0583
:102AA00020931B0521EC30E030931E0520931D057B
:102AB00022EC30E03093200520931F0526EC30E017
:102AC00030932205209321051092240510922505AC
:102AD00010922605109227051092AB051092AA05B8
:102AE0008093AC059093AD05A093AE05B093AF0570
:102AF0002DE131E03093A9052093A805109211062D
:102B0000109210068093120690931306A093140659
:102B1000B09315068FE391E090930F0680930E0615
:102B2000109225061092240610922706109226066F
:102B3000109229061092280610922B0610922A064F
:102B400060912C066E7F6D7F60932C066695617098
:102B500081E0682782E00E94BF0361E082E00E947A
:102B60000B04EEEDF1E0E491E0931E06EAECF1E0F7
:102B7000E491F0E0EE0FFF1FE254FE4F8591949137
:102B80009093200680931F0660E083E00E940B0470
:102B900080912C0681FD04C061E083E00E94BF03A8
:102BA000C3E0C0931A06EFEDF1E0E491E0931B0659
:102BB000EBECF1E0E491F0E0EE0FFF1FEC54FE4F80
:102BC0008591949190931D0680931C060E94900518
:102BD00060930A0670930B0680930C0690930D0683
:102BE0001092F9051092FA051092FB051092FC055F
:102BF0001092FD051092FE051092FF05109200063E
:102C0000109201061092020610920306109204061A
:102C10001092050610920606E3EEF5E086E1DF016C
:102C20001D928A95E9F788EA95E0909308068093CB
:102C3000070687E7809309068FE291E09093E2050B
:102C40008093E10588E68093D2058EE18093CA05E2
:102C50001092B5051092BC051092C3051092C405E0
:102C60001092C5051092C605C093C20581E08093FD
:102C7000BF051092C00592E09093C1058093B40502
:102C800088EB90E09093B9058093B8050E9477296E
:102C90009093BE058093BD05009799F128EBFC0148
:102CA00011922A95E9F78EE290E09093B705809310
:102CB000B60588E090E09093BB058093BA058091BB
:102CC000B505882341F061E088E00E940B0460E0D4
:102CD00088E00E94BF03E0EDF1E0E491F0E0EE0F48
:102CE000FF1FE254FE4F859194919093C805809305
:102CF000C705E4EEF1E0E491E093C905CF910C94AF
:102D000090051092B9051092B8051092B70510926F
:102D1000B605CFCFCF93DF93CDB7DEB7A8970FB669
:102D2000F894DEBF0FBECDBF789484B5826084BDB9
:102D300084B5816084BD85B5826085BD85B58160BF
:102D400085BD80916E00816080936E00109281003D
:102D500080918100826080938100809181008160F8
:102D600080938100809180008160809380008091B9
:102D7000B10084608093B1008091B0008160809345
:102D8000B00080917A00846080937A0080917A000C
:102D9000826080937A0080917A00816080937A00CB
:102DA00080917A00806880937A001092C100E0914F
:102DB0001B05F0911C0582E08083E0911705F091DE
:102DC00018051082E0911905F0911A0583E38083BC
:102DD00010922305E0911F05F091200586E0808385
:102DE000E0911D05F0911E05808180618083E09156
:102DF0001D05F0911E05808188608083E0911D058E
:102E0000F0911E05808180688083E0911D05F0911E
:102E10001E0580818F7D808360E076E980E090E010
:102E20000E94FE0180914404882331F061E172E048
:102E30008BE095E00E942C1060E08EE00E940B0475
:102E400060E08FE00E940B0462E080E10E940B04CE
:102E500062E081E10E940B0462E084E10E940B04C5
:102E600062E085E10E940B0461E084E00E940B04B3
:102E700061E085E00E940B0461E086E00E940B04A3
:102E800061E087E00E940B0460E089E00E940B048F
:102E900060E08AE00E940B0461E08CE00E940B0479
:102EA00061E08BE00E940B0461E08DE00E940B0466
:102EB00060E08BE00E94BF0360E08CE00E94BF03F3
:102EC00061E070E080E090E00E945D058091440444
:102ED000882331F065E272E08BE095E00E942C10CF
:102EE0008091BA059091BB0597FD08C061E00E94F2
:102EF0000B0460E08091BA050E94BF0381E08093DB
:102F0000B5050E947E046091BC05653629F12091CB
:102F1000BD053091BE056150C9F070E08FEF94E6B9
:102F20000E944929F9014091B8055091B905CF0196
:102F3000821B930B8417950760F44081469FC00164
:102F4000479F900D112490833196EDCF70E060E0A3
:102F5000E9CF85E68093BC0580914404882331F055
:102F600069E372E08BE095E00E942C1064E670E06B
:102F700080E090E00E945D0580914404882331F058
:102F800069E472E08BE095E00E942C100E948F11A2
:102F900080914404882331F06DE572E08BE095E088
:102FA0000E942C1010920A041092090410929C04A2
:102FB0001092BE040E94FF058DED92E090930804EC
:102FC000809307048EED92E09093060480930504AD
:102FD00020E045E06AE68091D2050E94150F21E0CD
:102FE00041E067E38091D2050E94150F20E046E0A2
:102FF0006BE68091D2050E94150F66E772E08EE0C5
:1030000096E00E942C1001E023E042E06BE6809104
:10301000D2050E94480F00E022E044E06BE180917D
:10302000D2050E94480F22E044E06CE18091D20575
:103030000E94480F20E046E06BE68091D2050E9496
:10304000150F40E760E08091CA050E94AC0840E29D
:1030500061E08091CA050E94AC0841E062E0809185
:10306000CA050E94AC0881E08093D10508EE13E008
:103070002BEC35E043E06AE08091CA050E946D0EBA
:10308000833071F48091CB05883451F48091CC0564
:10309000843331F48091CD056FE971E0833311F011
:1030A0006EEB71E08EE096E00E942C1062E972E017
:1030B0008EE096E00E942C1008EE13E09E012F5F38
:1030C0003F4F41E065E78091D2050E946D0E882355
:1030D00039F089818E7790E0959587958093D30517
:1030E0008091D30569ED71E0843311F067EF71E0F1
:1030F0008EE096E00E942C1060ED81EE95E00E943B
:103100003C0E853539F060EB72E08BE095E00E9473
:103110002C10FFCF8AEA0E94330E2B018CEA0E940A
:10312000330E6D877E878F87988B8EEA0E94330ED1
:10313000698B7A8B8B8B9C8B80EB0E94330E6D8B13
:103140007E8B8F8B988F82EB0E94330E698F7A8FE4
:103150008B8F9C8F84EB0E94330E6D8F7E8F8F8FB1
:1031600098A386EB0E94330E69A37AA38BA39CA33A
:1031700088EB0E94330E6DA37EA38FA398A78AEBE2
:103180000E94330E4B018CEB0E94330E6B018EEBD1
:103190000E94330E5092E4054092E3052D853E8552
:1031A0003093E6052093E50549895A895093E8054F
:1031B0004093E705ED89FE89F093EA05E093E90580
:1031C000298D3A8D3093EC052093EB054D8D5E8D66
:1031D0005093EE054093ED05E9A1FAA1F093F005B7
:1031E000E093EF052DA13EA13093F2052093F10568
:1031F0009092F4058092F305D092F605C092F50501
:103200007093F8056093F70546EB60EE81EE95E06C
:103210000E94FD0783E08093FA058091440488238F
:1032200031F06DEE72E08BE095E00E942C10809101
:103230004404882331F06DEF72E08BE095E00E944A
:103240002C10E5E4F4E0119234E0E539F307D9F706
:1032500080913B048B3040F081E080933B0461E03F
:1032600090E080E00E94551180913C048B3040F04A
:1032700081E080933C0461E081E090E00E94551180
:1032800080913904823038F01092390460E082E095
:1032900090E00E94551180913A04823038F01092EB
:1032A0003A0460E083E090E00E945511809144046C
:1032B000882331F06AE073E08BE095E00E942C10E7
:1032C0000E94C70D80914404882331F06FE173E0C0
:1032D0008BE095E00E942C1010923F0410923E0467
:1032E0000E94D2110E944E0A80910F049091100406
:1032F00090930E0480930D0490930C0480930B0420
:1033000080910A0690910B06A0910C06B0910D06D3
:103310008093400490934104A0934204B0934304EB
:10332000AE01475F5F4F5A874987CE0105969C875C
:103330008B8760E08DE00E94BF030E9490056B01C7
:103340007C01C0920A06D0920B06E0920C06F09225
:103350000D068EE096E00E943D09181619060CF045
:1033600082C0109296041092950489E1C82ED12C47
:103370008EE096E00E943D09181619069CF58EE035
:1033800096E00E9455092091950430919604F90128
:10339000EB5BFB4F808379019FEFE91AF90AF0920A
:1033A0009604E0929504C701B6010E945D29892B1D
:1033B00041F401E010E020E048EC6EE68AE00E9473
:1033C0004D0B80914404882331F0F701EB5BFB4FF8
:1033D00080810E9419108091950490919604813506
:1033E000910534F2809144048823C1F08DE393E089
:1033F0000E9414108EE096E00E943D09BC01990FD6
:10340000880B990B97FD02C00C94C0230E94F30F08
:103410006DE471E08EE096E00E94970F10929604A2
:103420001092950480914404882311F40C94CB23CA
:1034300084E593E00E941410009195041091960485
:10344000F801EB5BFB4F6081662311F40C94C523FC
:103450008EE096E00E94E1080F5F1F4F10939604E4
:1034600000939504E9CF8091400490914104A0918C
:103470004204B0914304AC01BD014A5E5C4F6F4F02
:103480007F4F4C155D056E057F0558F4805E9C4F9F
:10349000AF4FBF4FC816D906EA06FB0610F40E94CC
:1034A000B00D0AE0302E22242394809140049091A4
:1034B0004104A0914204B091430484529A4FAF4F0B
:1034C000BF4F40910A0650910B0660910C06709117
:1034D0000D06481759076A077B0708F42ACF0E9490
:1034E0008A09809300018E3609F404C18091440456
:1034F000882341F083E393E00E941410809100013F
:103500000E94191080910001853461F50E94C70D59
:1035100061E08DE00E94BF03809100018E3609F4C6
:1035200051C761E08CE00E94BF0320E040E062E30D
:1035300082E30E948B0D68EC70E080E090E00E94D6
:103540005D050E948A098093000160E08CE00E9482
:10355000BF030E94B00D68EC70E080E090E00E9434
:103560005D05DACF863409F07DC010923F041092D9
:103570003E048EE00E9447048C01F12CE12C40E0D7
:1035800050E0BA01C7010E942401EFEFEE1AFE0AD3
:10359000F6E1EF16F10499F730E020E0C901B80137
:1035A000605D72408109910913E0660F771F881FE3
:1035B000991F1A95D1F722E830E040E050E00E94D0
:1035C000FF2569017A016FEFC61AD60AE60AF60AE4
:1035D00010E000E040E050E060E073E0C8010E94CD
:1035E00024010F5F1F4F05311105A1F740E050E0A6
:1035F0006CE370E090E080E00E94240140E050E045
:103600006CE370E085E190E00E94240144E650E024
:1036100060E070E08AE090E00E94240144E650E01F
:1036200060E070E08BE090E00E942401C601019709
:10363000099780F448E258E268E270E0C6010E940F
:103640002401C8018C199D0948E258E268E270E043
:103650000E9424010E947E0468EE73E080E090E006
:103660000E945D058EE096E00E943D09181619063D
:103670000CF01BC11092960410929504A9E1CA2E79
:10368000D12C8EE096E00E943D09181619060CF028
:10369000A9CE8EE096E00E945509209195043091C4
:1036A0009604A9014B5B5B4F7A01FA018083C90143
:1036B000B6010E945D29892B41F401E010E020E071
:1036C00048EC6EE68AE00E944D0B8091440488230A
:1036D00021F0F70180810E9419108091950490914A
:1036E00096040196909396048093950481359105F4
:1036F00044F278CE8FE00E9447048B3293400CF462
:10370000B1CF81E080933D040E94571110923F0495
:1037100010923E0410E000E044E154E660E070E006
:10372000C8010E9424010F5F1F4F0E321105A1F73F
:1037300061E08DE00E94BF030E94CB1060E08DE04D
:103740000E94BF030E94C70D60E08CE00E94BF038F
:1037500060E08BE00E94BF03F12CE12CB6E9CB2E98
:10376000B4E0DB2E80913E0490913F04892B11F44C
:103770000E9479098EE00E94470440900A0650900A
:103780000B0660900C0670900D0640912D04509130
:103790002E0460912F0470913004405E5C4F6F4F97
:1037A0007F4F441555056605770508F05EC0B0E00B
:1037B000A0E09C01AD01205D324041095109A4E126
:1037C000B0E00E941E2622E830E040E050E00E9477
:1037D000FF2549015A0168E1860E911CA11CB11C0C
:1037E00006E110E040E050E0BA01C8010E94240167
:1037F0000F5F1F4F0E321105A9F740E050E0BA01EC
:1038000086E190E00E94240140E050E064E170E035
:1038100087E190E00E94240142E350E060E070E024
:103820008DE290E00E94240108E110E040E050E0C9
:1038300060E073E0C8010E9424010F5F1F4F0D324A
:103840001105A1F7C4014897459738F44AE05AE0BA
:103850006AE070E0C4010E94240140922D0450925D
:103860002E0460922F04709230040E9490056093A1
:103870000A0670930B0680930C0690930D060E9427
:103880007E0480E2E8168EE4F80614F40C947125A8
:1038900061E08DE00E94BF030E94CB1060E08DE0EC
:1038A0000E94BF03F12CE12C5DCFE0903C04ED863B
:1038B00080913B04882359F0813009F040C0809109
:1038C0003E0490913F04892B11F40E947909ED8404
:1038D000EE2031F02E2D213009F0A5C20E94B00D4E
:1038E0000E947E0480913E0490913F04892B31F424
:1038F00081E090E090933F0480933E0420922C045A
:103900009D85973009F05BC520922B0410913A04F5
:103910008091390461E0813019F0811104C060E0C8
:103920008CE00E94BF0361E0113019F0111104C056
:1039300060E08BE00E94BF030E94D211B6CD8230BE
:1039400021F500913E0410913F040115110509F085
:10395000BECF80913104C0903704D12CF12CE12CE2
:103960007601DD24CC24F82A80913304C82A809182
:103970003504D82AB701A601C8010E9424010F5FAF
:103980001F4F06311105B1F7A2CF833009F06DC08A
:1039900080900A0690900B06A0900C06B0900D0641
:1039A0008091170490911804A0911904B0911A0401
:1039B0000196A11DB11D88159905AA05BB0508F042
:1039C00086CF2091130430911404809111049091BA
:1039D000120421303105C9F50396909312048093A7
:1039E0001104803F910524F01092140410921304E6
:1039F00010E000E0E0901104F09012044E2D50E031
:103A000070E060E0742F662755274427C8010E94A4
:103A100024010F5F1F4F0631110561F78CE291E021
:103A20008E199F0965E070E00E945D29072E000C49
:103A3000880B990B0E945D058092170490921804E0
:103A4000A0921904B0921A0442CF232B89F603974F
:103A50009093120480931104029754F621E030E011
:103A60003093140420931304C3CF843009F06BC047
:103A70004091250450912604209123043091240480
:103A8000CA018D599F4F82179307CCF0865C91092C
:103A900028173907A4F063E6649FC001659F900D65
:103AA00011244091210450912204840F951F64E653
:103AB00070E00E945D297093260460932504809134
:103AC000250490912604AC01485B5B402417350720
:103AD0007CF410E000E040E05FEF6FEF70E0C801C1
:103AE0000E9424010F5F1F4F0B301105A1F7EFCE8D
:103AF0008854944F821793077CF40BE010E040E069
:103B00005FEF6FEF70E0C8010E9424010F5F1F4F4D
:103B100006311105A1F7DBCE10E000E040E054E6ED
:103B200060E070E0C8010E9424010F5F1F4F063162
:103B30001105A1F780912304909124049093260409
:103B400080932504C4CE853009F04DC0812C912C82
:103B5000540110E000E0C0902704D0902804E090C9
:103B60002904F0902A042091B6053091B70550E061
:103B700040E0C501B4010E94FF25C9018C0D9D1DC7
:103B80000E9495016D837E838F839887DE01159651
:103B9000ED91F0E0EC54FF4F2491CD010197FC0131
:103BA000208329853A85A217B30791F74D815E815D
:103BB0006F817885C8010E9424010F5F1F4F3FEF7E
:103BC000A31AB30A0631110531F648E7C40ED11C19
:103BD000E11CF11CC0922704D0922804E092290431
:103BE000F0922A0474CE863009F094C040900A0600
:103BF00050900B0660900C0670900D068091170493
:103C000090911804A0911904B0911A04A301920193
:103C1000281B390B4A0B5B0BDA01C9014E97A10532
:103C2000B10508F454CE2091310490913304809171
:103C30003504C09037040091150410911604580102
:103C400031E0A31AB1084AE0A416B104A8F5D12CBA
:103C5000F12CE12C7601DD24CC24F22AC92AD82AC1
:103C6000B701A601C8010E942401B701A60185E1A0
:103C700090E0801B910B0E94240140E050E0BA01CB
:103C8000C5010E94240140E050E0BA0186E190E0C5
:103C9000801B910B0E9424010B301105A4F110929E
:103CA0001604109215044092170450921804609262
:103CB000190470921A040BCE0B30110501F5D12CAA
:103CC000F12CE12C7601DD24CC24F22AC92AD82A51
:103CD000B701A6018BE090E00E942401B701A60184
:103CE0008AE090E00E942401B701A60190E080E004
:103CF0000E942401B701A60185E190E0BCCF101617
:103D000011060CF4BACF0F5F1F4F109316040093E7
:103D10001504C9CF873009F0DACD80913E04909127
:103D20003F04892B71F405E010E048EC58EC68EC96
:103D300070E0C8010E9424010F5F1F4F013111057F
:103D4000A1F780900A0690900B06A0900C06B09008
:103D50000D068091170490911804A0911904B09158
:103D60001A04885F984FAF4FBF4F88159905AA0571
:103D7000BB0500F58092170490921804A0921904D4
:103D8000B0921A0410E000E0A5E1EA2EF12C40E028
:103D900050E0BA01C8010E94240140E050E0BA019D
:103DA000C701801B910B0E9424010F5F1F4F05303C
:103DB000110569F78091170490911804A0911904D6
:103DC000B0911A04AC01BD0146585C4F6F4F7F4F54
:103DD00084169506A606B70608F479CD82579C4F3F
:103DE000AF4FBF4F88159905AA05BB0508F46FCDE5
:103DF00010E000E0F5E1EF2EF12C40E050E06FEF35
:103E000070E0C8010E94240140E050E06FEF70E0D4
:103E1000C701801B910B0E9424010F5F1F4F0530CB
:103E2000110559F754CD3D85323059F420913104B4
:103E30004091330460913504809137040E948B0DCA
:103E40004FCD4D85433009F07FC000911D04109186
:103E50001E04C0900A06D0900B06E0900C06F0906D
:103E60000D0680902D0490902E04A0902F04B09009
:103E700030045FEF851A950AA50AB50A8CE291E035
:103E8000801B910B65E070E00E945D29072E000CFD
:103E9000880B990B860E971EA81EB91E8C149D04C4
:103EA000AE04BF0408F01CCD80911B0490911C044B
:103EB00081309105B9F50B5F1F4F10931E040093DD
:103EC0001D048CE291E0801B910B65E070E00E9484
:103ED0005D29072E000C880B990B0E945D050639A1
:103EE000110524F010921C0410921B0406E110E04E
:103EF00040911D0450E070E060E0742F6627552764
:103F00004427C8010E9424010F5F1F4F0E32110584
:103F100079F7C0922D04D0922E04E0922F04F092F3
:103F20003004DECC892B11F70550110910931E04C3
:103F300000931D0402301105CCF681E090E09093CF
:103F40001C0480931B04D2CF9D85943009F0E0C0FF
:103F500040900A0650900B0660900C0670900D067B
:103F600080912D0490912E04A0912F04B0913004E3
:103F70008A5B9F4FAF4FBF4F84159505A605B705C8
:103F800008F0AECC80903104909033040091350459
:103F90001091370476E1E72EF12C40E050E0BA01B1
:103FA000C7010E942401EFEFEE1AFE0AFEE2EF16AF
:103FB000F10499F7A0901F04B0902004C501479721
:103FC000079708F054C0882D632D0E943D29282FA3
:103FD000812F0E943D2990E0B0E0A0E07C01DD242B
:103FE000CC24F22A892D0E943D29C82A802F0E94C4
:103FF0003D29D82AB701A601C50101970E942401D5
:10400000B701A601C50107960E942401B701A601C8
:10401000C5010F960E942401C12ED12CF12CE12C58
:104020007601DD24CC24F828C928D02AB701A601BE
:10403000C5010E942401B701A601C50108960E948E
:104040002401B701A601C50140960E9424012FEF6B
:10405000A21AB20AB0922004A0921F0440922D042A
:1040600050922E0460922F047092300439CC3EE1BD
:10407000A316B10409F045C0882D632D0E943D2987
:10408000282F812F0E943D2990E0B0E0A0E07C0124
:10409000DD24CC24F22A892D0E943D29C82A802FB4
:1040A0000E943D29D82AB701A6018DE290E00E9426
:1040B0002401B701A6018DE190E00E942401B7011F
:1040C000A60185E290E00E942401C12ED12CF12CA2
:1040D000E12C7601DD24CC24F828C928D02AB701A8
:1040E000A60186E190E00E942401B701A6018EE1BD
:1040F00090E00E942401B701A60186E290E00E94B0
:10410000240187E190E09093200480931F04A6CFC0
:104110004D85453069F406E410E02091310440916A
:10412000330460913504809137040E944D0BD8CB45
:104130005D85563009F06AC04091250450912604EF
:104140002091230430912404CA018D599F4F821776
:104150009307CCF0865C910928173907A4F063E631
:10416000649FC001659F900D1124409121045091DE
:104170002204840F951F64E670E00E945D2970930D
:104180002604609325048091250490912604AC01B7
:10419000485B5B40241735077CF409E110E040E000
:1041A00054E664E670E0C8010E9424010F5F1F4FCF
:1041B00000321105A1F794CB8854944F82179307CE
:1041C0007CF405E210E040E054E664E670E0C801EB
:1041D0000E9424010F5F1F4F0C321105A1F780CB05
:1041E00006E110E040E050E0BA01C8010E9424015D
:1041F0000F5F1F4F0E321105A9F780912304909194
:10420000240490932604809325046ACB8D858730FF
:1042100019F40E944E0A64CB9D85983009F07CC049
:104220008EE00E94470480900A0690900B06A090B2
:104230000C06B0900D0640912D0450912E04609113
:104240002F0470913004405E5C4F6F4F7F4F4815D4
:1042500059056A057B0508F043CBB0E0A0E09C015E
:10426000AD01205D324041095109A4E1B0E00E9456
:104270001E2622E830E040E050E00E94FF25690160
:104280007A01E8E1CE0ED11CE11CF11C06E110E040
:1042900040E050E0BA01C8010E9424010F5F1F4FA7
:1042A0000E321105A9F740E050E0BA0186E190E036
:1042B0000E94240140E050E06CE370E087E190E070
:1042C0000E94240144E650E060E070E08DE290E05E
:1042D0000E94240108E110E040E050E060E073E05B
:1042E000C8010E9424010F5F1F4F0D321105A1F775
:1042F000C6014897459738F448E258E268E270E012
:10430000C6010E94240180922D0490922E04A09256
:104310002F04B0923004E4CAFD85F93009F0E0CAF8
:10432000812C912C86E1A82EB12C06E110E0C090E2
:104330002704D0902804E0902904F0902A042091CA
:10434000B6053091B70550E040E0C501B4010E94C8
:10435000FF25C9018C0D9D1D0E94950169837A83FB
:104360008B839C83DE011196ED91F0E0EC54FF4FBE
:104370002491CD010197FC0120832B853C852A17D0
:104380003B0791F749815A816B817C81C8010E946A
:1043900024010F5F1F4F3FEFA31AB30A0E3211051E
:1043A00031F648E7C40ED11CE11CF11CC092270471
:1043B000D0922804E0922904F0922A0491CA109223
:1043C0002B04A4CA809100018E36F9F461E08CE0E0
:1043D0000E94BF0320E040E062E382E30E948B0D75
:1043E00068EC70E080E090E00E945D050E948A0920
:1043F0008093000160E08CE00E94BF0368EC70E0F5
:1044000080E090E00E945D05DDCF813409F07FC03F
:1044100061E08CE00E94BF0320E042E362E382E3BC
:104420000E948B0D68EC70E080E090E00E945D05DA
:104430000E948A09182F60E08CE00E94BF030E944E
:10444000B00D68EC70E080E090E00E945D051E36E3
:10445000F9F661E08CE00E94BF0320E042E362E3F2
:1044600082E30E948B0D64E670E080E090E00E94A1
:104470005D050E948A09813329F581E080933B0420
:1044800061E08CE00E94BF0320E042E362E382E34C
:104490000E948B0D62E370E080E090E00E945D0579
:1044A0000E948A09182F60E08CE00E94BF030E94DE
:1044B000B00D62E370E080E090E00E945D051E3682
:1044C000F9F64EC1823311F482E0D8CF833311F470
:1044D00083E0D4CF843311F484E0D0CF853311F45A
:1044E00085E0CCCF863311F486E0C8CF873311F452
:1044F00087E0C4CF60E08CE00E94BF030E94B00D53
:1045000064E670E080E090E00E945D05A2CF823416
:1045100009F05EC061E08CE00E94BF0320E042E34E
:1045200062E382E30E948B0D68EC70E080E090E033
:104530000E945D050E948A09182F60E08CE00E94AD
:10454000BF030E94B00D68EC70E080E090E00E9434
:104550005D051E36F9F661E08CE00E94BF0364E65B
:1045600070E080E090E00E945D050E948A0981333E
:1045700021F481E080933C0483CF823311F482E004
:10458000F9CF833311F483E0F5CF843311F484E061
:10459000F1CF853311F485E0EDCF863311F486E059
:1045A000E9CF873311F487E0E5CF883311F488E051
:1045B000E1CF893311F489E0DDCF60E08CE00E9427
:1045C000BF0364E670E080E090E00E945D05C3CF29
:1045D000833409F04BC061E08CE00E94BF0320E00F
:1045E00042E362E382E30E948B0D68EC70E080E0BE
:1045F00090E00E945D050E948A09182F60E08CE01F
:104600000E94BF030E94B00D68EC70E080E090E073
:104610000E945D051E36F9F661E08CE00E94BF0342
:1046200020E042E362E382E30E948B0D64E670E0E7
:1046300080E090E00E945D050E948A09813319F4B0
:10464000109239041DCF823321F481E08093390424
:1046500017CF60E08CE00E94BF030E94B00D64E6BB
:1046600070E080E090E00E945D05D6CF843409F0D0
:104670004BC061E08CE00E94BF0320E042E362E3B4
:1046800082E30E948B0D68EC70E080E090E00E9475
:104690005D050E948A09182F60E08CE00E94BF032C
:1046A0000E94B00D68EC70E080E090E00E945D0533
:1046B0001E36F9F661E08CE00E94BF0320E040E086
:1046C00062E382E30E948B0D64E670E080E090E09C
:1046D0000E945D050E948A09813319F410923A0400
:1046E000CFCE823321F481E080933A04C9CE60E0DA
:1046F0008CE00E94BF030E94B00D64E670E080E091
:1047000090E00E945D05D6CF863451F561E08CE0E3
:104710000E94BF0320E042E362E382E30E948B0D2C
:1047200068EC70E080E090E00E945D050E948A09DC
:10473000182F60E08CE00E94BF030E94B00D68EC6F
:1047400070E080E090E00E945D051E36F9F681E0A1
:1047500080933B0480933C041092390410923A04F5
:104760008EE6809300010E94CB100E94571160E0FA
:104770008DE00E94BF0310923F0410923E049FC13F
:104780004AE00E94A60F0C94081A61E373E08EE0E1
:1047900096E00E942C10809145048434F1F530910C
:1047A0003A045091390440913C0420913B04E5E4E3
:1047B000F4E081E090E06191662321F16A53623078
:1047C000D0F782309105A1F044F48130910599F73A
:1047D0002081205382E090E0EECF8330910569F094
:1047E0008430910541F73081305385E090E0E3CF8C
:1047F0004081405383E090E0DECF5081505384E00D
:1048000090E0D9CF5093390440933C0430933A045C
:1048100020933B040E94CB10CBC0833409F0D6C058
:10482000409131045091320420913304309134048A
:104830006091350470913604A0913704B09138042A
:10484000E5E4F4E081E090E004E61AE0F190FF2076
:1048500009F498C00F2EF6ECEF2EF02DFE0CEE248E
:10486000E394EF1498F38230910509F44BC01CF5E2
:104870008130910559F78181082E000C990BC09762
:10488000089FD001099FB00D11248281082E000CD1
:10489000990BC097189F7001199FF00C1124AE0D51
:1048A000BF1D8381082E000C990BC097A80FB91F5C
:1048B00082E090E0CBCF8330910509F443C084308F
:1048C000910521F68181082E000C990BC097089F55
:1048D000A001099F500D11248281082E000C990B14
:1048E000C097189F7001199FF00C11244E0D5F1D89
:1048F0008381082E000C990BC097480F591F85E043
:1049000090E0A4CF8181082E000C990BC097089FDE
:10491000B001099F700D11248281082E000C990BA3
:10492000C097189F7001199FF00C11246E0D7F1D08
:104930008381082E000C990BC097680F791F83E0C4
:1049400090E084CF8181082E000C990BC097089FBE
:104950009001099F300D11248281082E000C990BC3
:10496000C097189F7001199FF00C11242E0D3F1D48
:104970008381082E000C990BC097280F391F84E003
:1049800090E064CFB0933804A0933704709336045A
:1049900060933504509332044093310430933404CF
:1049A000209333040E94401010923F0410923E0462
:1049B0000E945711E5E4F4E0CF0185549440219121
:1049C000222391F0DF0111971C92F6CF843521F458
:1049D00081E080934404ECCF813409F41BCF82340E
:1049E00039F70E944010E4CF909396048093950489
:1049F0000E948F1180913B048B3040F081E08093C6
:104A00003B0461E090E080E00E94551180913C04FD
:104A10008B3040F081E080933C0461E081E090E0E5
:104A20000E94551180913904823038F01092390477
:104A300060E082E090E00E94551180913A0482305B
:104A400038F010923A0460E083E090E00E94551143
:104A500080913704909138048F3F910529F020F020
:104A600010923804109237048091350490913604E6
:104A70008F3F910529F020F01092360410923504F2
:104A800080913304909134048F3F910529F020F0F8
:104A900010923404109233048091310490913204C6
:104AA0008F3F910529F020F01092320410923104CA
:104AB0008EE096E00E943D09892B09F45CCE80913E
:104AC0000A0690910B06A0910C06B0910D068093FA
:104AD000400490934104A0934204B09343040C9487
:104AE00099198EE096E00E943D091816190624F5E2
:104AF00005E414E08EE096E00E943D0918161906C0
:104B000054F48EE096E00E945509F80181938F01DC
:104B1000CE16DF0679F761E08DE00E94BF030E94A8
:104B2000CB10E5E4F4E08191882311F40C944E1C41
:104B3000DF0111971C92F7CF8FE00E9447048A3261
:104B40009340BCF410923F0410923E0410923D0436
:104B500020E040E060E084E60E948B0D64E670E0B7
:104B600080E090E00E945D050E94B00D0E948F11D0
:104B7000A6CF2FEFE21AF20A0C94B21B8091BD056A
:104B80009091BE050E94132A8091BA059091BB05B1
:104B900097FD03C060E00E940B048FE391E09093C7
:104BA0000F0680930E068091990490919A048E507E
:104BB000964071F4E0912106F09122069081809157
:104BC000230680958923808310929A041092990479
:104BD0000895F999FECF92BD81BDF89A992780B5C5
:104BE0000895262FF999FECF1FBA92BD81BD20BD31
:104BF0000FB6F894FA9AF99A0FBE01960895052E09
:104C000097FB1EF400940E94162657FD07D00E94C1
:104C1000292607FC03D04EF40C9416265095409597
:104C2000309521953F4F4F4F5F4F08959095809558
:104C3000709561957F4F8F4F9F4F08950E944B262F
:104C4000A59F900DB49F900DA49F800D911D1124E0
:104C50000895A1E21A2EAA1BBB1BFD010DC0AA1FBD
:104C6000BB1FEE1FFF1FA217B307E407F50720F0D5
:104C7000A21BB30BE40BF50B661F771F881F991F50
:104C80001A9469F760957095809590959B01AC0199
:104C9000BD01CF010895A29FB001B39FC001A39FA2
:104CA000700D811D1124911DB29F700D811D112465
:104CB000911D08955058BB27AA270E9472260C9474
:104CC00085280E94772838F00E947E2820F039F449
:104CD0009F3F19F426F40C944D280EF4E095E7FB61
:104CE0000C944728E92F0E94962858F3BA176207B8
:104CF00073078407950720F079F4A6F50C94B8287B
:104D00000EF4E0950B2EBA2FA02D0B01B9019001E6
:104D10000C01CA01A0011124FF27591B99F0593F2A
:104D200050F4503E68F11A16F040A22F232F342F72
:104D30004427585FF3CF469537952795A795F040C0
:104D40005395C9F77EF41F16BA0B620B730B840BD5
:104D5000BAF09150A1F0FF0FBB1F661F771F881F8D
:104D6000C2F70EC0BA0F621F731F841F48F48795E5
:104D700077956795B795F7959E3F08F0B0CF9395D7
:104D8000880F08F09927EE0F9795879508950E9450
:104D9000772860F080E891E009F49EEF0E947E2879
:104DA00028F040E851E071F45EEF0CC00C944D28FF
:104DB0000C94B828E92FE0780E94962840F3092E39
:104DC000052AB1F3261737074807590738F00E2E82
:104DD00007F8E02569F0E025E0640AC0EF6307F812
:104DE000009407FADB01B9019D01DC01CA01AD01A4
:104DF000EF930E9455270E9485280E940A275F9101
:104E0000552339F02BED3FE049E450FD49EC0C947B
:104E10005B260895DF93DD27B92FBF7740E85FE376
:104E20001616170648075B0718F4D92F0E94C428E6
:104E30009F938F937F936F930E943929E8E6F0E068
:104E40000E9450280E9485282F913F914F915F9199
:104E50000E94DF28DD2351F09058A2EA2AED3FE0BE
:104E600049EC5FE3D0785D270E947226DF910C94B5
:104E700085280E94232808F481E008950E94522783
:104E80000C9485280E947E2858F00E94772840F0D4
:104E900029F45F3F29F00C94472851110C94B9284C
:104EA0000C944D280E94962868F39923B1F355235A
:104EB00091F3951B550BBB27AA276217730784072D
:104EC00038F09F5F5F4F220F331F441FAA1FA9F3C3
:104ED00035D00E2E3AF0E0E832D091505040E695B1
:104EE000001CCAF72BD0FE2F29D0660F771F881F12
:104EF000BB1F261737074807AB07B0E809F0BB0B05
:104F0000802DBF01FF2793585F4F3AF09E3F510518
:104F100078F00C9447280C94B9285F3FE4F3983E4E
:104F2000D4F3869577956795B795F7959F5FC9F701
:104F3000880F911D9695879597F90895E1E0660F82
:104F4000771F881FBB1F621773078407BA0720F0FB
:104F5000621B730B840BBA0BEE1F88F7E095089564
:104F60000E94B7276894B1110C94B92808950E9443
:104F70009E2888F09F5798F0B92F9927B751B0F025
:104F8000E1F0660F771F881F991F1AF0BA95C9F7CD
:104F900014C0B13091F00E94B828B1E008950C948B
:104FA000B828672F782F8827B85F39F0B93FCCF33E
:104FB000869577956795B395D9F73EF4909580954A
:104FC000709561957F4F8F4F9F4F0895E89409C06A
:104FD00097FB3EF490958095709561957F4F8F4F2C
:104FE0009F4F9923A9F0F92F96E9BB279395F69542
:104FF000879577956795B795F111F8CFFAF4BB0FC0
:1050000011F460FF1BC06F5F7F4F8F4F9F4F16C023
:10501000882311F096E911C0772321F09EE8872FAD
:10502000762F05C0662371F096E8862F70E060E069
:105030002AF09A95660F771F881FDAF7880F9695E2
:10504000879597F90895990F0008550FAA0BE0E886
:10505000FEEF16161706E807F907C0F0121613063A
:10506000E407F50798F0621B730B840B950B39F47A
:105070000A2661F0232B242B252B21F408950A26E0
:1050800009F4A140A6958FEF811D811D089597F920
:105090009F6780E870E060E008959FEF80EC0895DE
:1050A000DF93CF931F930F93FF92EF92DF927B01D9
:1050B0008C01689406C0DA2EEF010E94DF28FE0101
:1050C000E894A5912591359145915591A6F3EF016D
:1050D0000E947226FE019701A801DA9469F7DF9019
:1050E000EF90FF900F911F91CF91DF9108950024D1
:1050F0000A941616170618060906089500240A943D
:1051000012161306140605060895092E0394000CC2
:1051100011F4882352F0BB0F40F4BF2B11F460FF51
:1051200004C06F5F7F4F8F4F9F4F089557FD90587A
:10513000440F551F59F05F3F71F04795880F97FB5B
:10514000991F61F09F3F79F0879508951216130615
:105150001406551FF2CF4695F1DF08C01616170644
:105160001806991FF1CF8695710561050894089579
:10517000E894BB2766277727CB0197F908950E940B
:10518000232808F48FEF08959B01AC0160E070E0E4
:1051900080E89FE30C943E270E94DF280C9485282A
:1051A0000E94772838F00E947E2820F0952311F085
:1051B0000C9447280C944D2811240C94B9280E9473
:1051C000962870F3959FC1F3950F50E0551F629F8D
:1051D000F001729FBB27F00DB11D639FAA27F00D50
:1051E000B11DAA1F649F6627B00DA11D661F829F77
:1051F0002227B00DA11D621F739FB00DA11D621F5C
:10520000839FA00D611D221F749F3327A00D611D78
:10521000231F849F600D211D822F762F6A2F11245A
:105220009F5750409AF0F1F088234AF0EE0FFF1F8D
:10523000BB1F661F771F881F91505040A9F79E3FE4
:10524000510580F00C9447280C94B9285F3FE4F393
:10525000983ED4F3869577956795B795F795E7953A
:105260009F5FC1F7FE2B880F911D9695879597F943
:1052700008959B01AC010C94CC28991B79E004C0E3
:10528000991F961708F0961B881F7A95C9F7809585
:105290000895AA1BBB1B51E107C0AA1FBB1FA6177D
:1052A000B70710F0A61BB70B881F991F5A95A9F7CF
:1052B00080959095BC01CD01089597FB072E16F4BB
:1052C000009407D077FD09D00E94492907FC05D03A
:1052D0003EF4909581959F4F0895709561957F4F0D
:1052E0000895EE0FFF1F0590F491E02D09940F93A0
:1052F0001F93CF93DF938230910510F482E090E00A
:10530000E0912F06F091300630E020E0B0E0A0E020
:10531000309799F42115310509F44AC0281B390B3F
:1053200024303105D8F58A819B816115710589F199
:10533000FB0193838283FE0111C040815181028170
:10534000138148175907E0F04817590799F4109747
:1053500061F012960C93129713961C933296CF011C
:10536000DF91CF911F910F91089500932F06109315
:105370003006F4CF2115310551F04217530738F0AC
:10538000A901DB019A01BD01DF01F801C1CFEF01E5
:10539000F9CF9093300680932F06CDCFFE01E20F18
:1053A000F31F819391932250310939832883D7CFFA
:1053B00020912D0630912E06232B41F420910301DC
:1053C0003091040130932E0620932D062091010187
:1053D000309102012115310541F42DB73EB74091BE
:1053E000050150910601241B350BE0912D06F0912B
:1053F0002E06E217F307A0F42E1B3F0B28173907E0
:1054000078F0AC014E5F5F4F2417350748F04E0F20
:105410005F1F50932E0640932D06819391939FCF4B
:10542000F0E0E0E09CCFCF93DF930097E9F0FC0140
:10543000329713821282A0912F06B0913006ED01AF
:1054400030E020E01097A1F420813181820F931F7A
:1054500020912D0630912E062817390709F061C0DA
:10546000F0932E06E0932D06DF91CF910895EA0187
:10547000CE17DF07E8F54A815B819E014115510592
:10548000B1F7E901FB83EA8349915991C40FD51F14
:10549000EC17FD0761F4808191810296840F951FBE
:1054A000E90199838883828193819B838A83F0E0D9
:1054B000E0E012968D919C9113970097B9F52D918C
:1054C0003C911197CD010296820F931F20912D06DA
:1054D00030912E062817390739F6309751F510927A
:1054E000300610922F06B0932E06A0932D06BCCF47
:1054F000D383C28340815181840F951FC817D90778
:1055000061F44E5F5F4F88819981480F591F518325
:1055100040838A819B81938382832115310509F021
:10552000B0CFF0933006E0932F069ECFFD01DC0153
:10553000C0CF13821282D7CF81E090E0F8940C9410
:10554000A12A10E0C9EFD0E004C0FE010E94712939
:0C5550002196CA3FD107C9F7F894FFCF9D
:10555C006E000031068000000000005203AE02DF36
:10556C00029F031003EE020203000000007D0850AE
:10557C000876092D08D1053D082E0800000000D042
:10558C0005930FDB023C0EDC0DFD0700000000E173
:10559C0008AE0276092D083D095509C9080D0A0007
:1055AC00435B523A002F473A002F423A002F573AAA
:1055BC00005D00445B424E3A002F544E3A002F31AE
:1055CC004F3A002F324F3A002F43483A002F535492
:1055DC003A004E3A20536176696E672064617461BB
:1055EC0020004E3A204765742064617461200048A5
:1055FC004D43353838334C20636F6E6E6563746978
:10560C006F6E207375636365737366756C00484DBC
:10561C0043353838334C20636F6E6E656374696F35
:10562C006E206661696C6564004D505536303530BE
:10563C0020636F6E6E656374696F6E207375636340
:10564C0065737366756C004D50553630353020637C
:10565C006F6E6E656374696F6E206661696C6564EC
:10566C00004E3A202D2D2D2D2D52656164792D2D56
:10567C002D2D2D20004E3A2050696E4D6F64652003
:10568C0073657474696E6720004E3A204E656F2006
:10569C0073657474696E6720004E3A204E454F2036
:1056AC00706978656C20626567696E20004E3A20DF
:1056BC0067657420646174612066726F6D20454566
:1056CC0050524F4D2000496E697469616C697A695A
:1056DC006E672049324320646576696365732E2EAC
:1056EC002E0054657374696E672064657669636512
:1056FC0020636F6E6E656374696F6E732E2E2E0051
:10570C00626567696E2829206661696C65642E2064
:10571C00636865636B20796F757220424D50313828
:10572C003020496E7465726661636520616E642019
:10573C0049324320416464726573732E004E3A20E3
:10574C0047595F383720626567696E20004E3A20F2
:10575C00425420415420736574004E3A2065727295
:10576C006F7220646174612061646A757374004E99
:10577C003A202D2D2D2D2D53746172742D2D2D2D20
:10578C002D20004E3A206B6579203D20004E3A20AA
:10579C004E756D626572206F6620737472696E67E8
:1057AC00733A20004E3A2052656365697665204451
:0657BC006174613A200057
:00000001FF
